{
  "contractName": "Voting",
  "abi": [
    {
      "inputs": [
        {
          "internalType": "uint256",
          "name": "",
          "type": "uint256"
        }
      ],
      "name": "candidates",
      "outputs": [
        {
          "internalType": "string",
          "name": "",
          "type": "string"
        }
      ],
      "stateMutability": "view",
      "type": "function"
    },
    {
      "inputs": [
        {
          "internalType": "string",
          "name": "",
          "type": "string"
        }
      ],
      "name": "votes",
      "outputs": [
        {
          "internalType": "uint256",
          "name": "",
          "type": "uint256"
        }
      ],
      "stateMutability": "view",
      "type": "function"
    },
    {
      "inputs": [
        {
          "internalType": "string",
          "name": "name",
          "type": "string"
        }
      ],
      "name": "addCandidate",
      "outputs": [],
      "stateMutability": "nonpayable",
      "type": "function"
    },
    {
      "inputs": [
        {
          "internalType": "string",
          "name": "name",
          "type": "string"
        }
      ],
      "name": "vote",
      "outputs": [],
      "stateMutability": "nonpayable",
      "type": "function"
    },
    {
      "inputs": [
        {
          "internalType": "string",
          "name": "name",
          "type": "string"
        }
      ],
      "name": "getVotes",
      "outputs": [
        {
          "internalType": "uint256",
          "name": "",
          "type": "uint256"
        }
      ],
      "stateMutability": "view",
      "type": "function"
    },
    {
      "inputs": [],
      "name": "getCandidates",
      "outputs": [
        {
          "internalType": "string[]",
          "name": "",
          "type": "string[]"
        }
      ],
      "stateMutability": "view",
      "type": "function"
    }
  ],
  "bytecode": "0x6080604052348015600e575f5ffd5b50610bed8061001c5f395ff3fe608060405234801561000f575f5ffd5b5060043610610060575f3560e01c806306a49fce146100645780633477ee2e14610082578063462e91ec146100b2578063805265e5146100ce578063b99ef1fa146100fe578063fc36e15b1461012e575b5f5ffd5b61006c61014a565b604051610079919061052d565b60405180910390f35b61009c60048036038101906100979190610591565b61021e565b6040516100a99190610604565b60405180910390f35b6100cc60048036038101906100c79190610750565b6102c4565b005b6100e860048036038101906100e39190610750565b61031b565b6040516100f591906107a6565b60405180910390f35b61011860048036038101906101139190610750565b610341565b60405161012591906107a6565b60405180910390f35b61014860048036038101906101439190610750565b61036d565b005b60606001805480602002602001604051908101604052809291908181526020015f905b82821015610215578382905f5260205f2001805461018a906107ec565b80601f01602080910402602001604051908101604052809291908181526020018280546101b6906107ec565b80156102015780601f106101d857610100808354040283529160200191610201565b820191905f5260205f20905b8154815290600101906020018083116101e457829003601f168201915b50505050508152602001906001019061016d565b50505050905090565b6001818154811061022d575f80fd5b905f5260205f20015f915090508054610245906107ec565b80601f0160208091040260200160405190810160405280929190818152602001828054610271906107ec565b80156102bc5780601f10610293576101008083540402835291602001916102bc565b820191905f5260205f20905b81548152906001019060200180831161029f57829003601f168201915b505050505081565b600181908060018154018082558091505060019003905f5260205f20015f9091909190915090816102f591906109bc565b505f5f826040516103069190610ac5565b90815260200160405180910390208190555050565b5f5f8260405161032b9190610ac5565b9081526020016040518091039020549050919050565b5f818051602081018201805184825260208301602085012081835280955050505050505f915090505481565b5f5f8260405161037d9190610ac5565b90815260200160405180910390205410156103cd576040517f08c379a00000000000000000000000000000000000000000000000000000000081526004016103c490610b25565b60405180910390fd5b5f816040516103dc9190610ac5565b90815260200160405180910390205f8154809291906103fa90610b70565b919050555050565b5f81519050919050565b5f82825260208201905092915050565b5f819050602082019050919050565b5f81519050919050565b5f82825260208201905092915050565b8281835e5f83830152505050565b5f601f19601f8301169050919050565b5f61046d8261042b565b6104778185610435565b9350610487818560208601610445565b61049081610453565b840191505092915050565b5f6104a68383610463565b905092915050565b5f602082019050919050565b5f6104c482610402565b6104ce818561040c565b9350836020820285016104e08561041c565b805f5b8581101561051b57848403895281516104fc858261049b565b9450610507836104ae565b925060208a019950506001810190506104e3565b50829750879550505050505092915050565b5f6020820190508181035f83015261054581846104ba565b905092915050565b5f604051905090565b5f5ffd5b5f5ffd5b5f819050919050565b6105708161055e565b811461057a575f5ffd5b50565b5f8135905061058b81610567565b92915050565b5f602082840312156105a6576105a5610556565b5b5f6105b38482850161057d565b91505092915050565b5f82825260208201905092915050565b5f6105d68261042b565b6105e081856105bc565b93506105f0818560208601610445565b6105f981610453565b840191505092915050565b5f6020820190508181035f83015261061c81846105cc565b905092915050565b5f5ffd5b5f5ffd5b7f4e487b71000000000000000000000000000000000000000000000000000000005f52604160045260245ffd5b61066282610453565b810181811067ffffffffffffffff821117156106815761068061062c565b5b80604052505050565b5f61069361054d565b905061069f8282610659565b919050565b5f67ffffffffffffffff8211156106be576106bd61062c565b5b6106c782610453565b9050602081019050919050565b828183375f83830152505050565b5f6106f46106ef846106a4565b61068a565b9050828152602081018484840111156107105761070f610628565b5b61071b8482856106d4565b509392505050565b5f82601f83011261073757610736610624565b5b81356107478482602086016106e2565b91505092915050565b5f6020828403121561076557610764610556565b5b5f82013567ffffffffffffffff8111156107825761078161055a565b5b61078e84828501610723565b91505092915050565b6107a08161055e565b82525050565b5f6020820190506107b95f830184610797565b92915050565b7f4e487b71000000000000000000000000000000000000000000000000000000005f52602260045260245ffd5b5f600282049050600182168061080357607f821691505b602082108103610816576108156107bf565b5b50919050565b5f819050815f5260205f209050919050565b5f6020601f8301049050919050565b5f82821b905092915050565b5f600883026108787fffffffffffffffffffffffffffffffffffffffffffffffffffffffffffffffff8261083d565b610882868361083d565b95508019841693508086168417925050509392505050565b5f819050919050565b5f6108bd6108b86108b38461055e565b61089a565b61055e565b9050919050565b5f819050919050565b6108d6836108a3565b6108ea6108e2826108c4565b848454610849565b825550505050565b5f5f905090565b6109016108f2565b61090c8184846108cd565b505050565b5b8181101561092f576109245f826108f9565b600181019050610912565b5050565b601f821115610974576109458161081c565b61094e8461082e565b8101602085101561095d578190505b6109716109698561082e565b830182610911565b50505b505050565b5f82821c905092915050565b5f6109945f1984600802610979565b1980831691505092915050565b5f6109ac8383610985565b9150826002028217905092915050565b6109c58261042b565b67ffffffffffffffff8111156109de576109dd61062c565b5b6109e882546107ec565b6109f3828285610933565b5f60209050601f831160018114610a24575f8415610a12578287015190505b610a1c85826109a1565b865550610a83565b601f198416610a328661081c565b5f5b82811015610a5957848901518255600182019150602085019450602081019050610a34565b86831015610a765784890151610a72601f891682610985565b8355505b6001600288020188555050505b505050505050565b5f81905092915050565b5f610a9f8261042b565b610aa98185610a8b565b9350610ab9818560208601610445565b80840191505092915050565b5f610ad08284610a95565b915081905092915050565b7f43616e64696461746520646f6573206e6f7420657869737400000000000000005f82015250565b5f610b0f6018836105bc565b9150610b1a82610adb565b602082019050919050565b5f6020820190508181035f830152610b3c81610b03565b9050919050565b7f4e487b71000000000000000000000000000000000000000000000000000000005f52601160045260245ffd5b5f610b7a8261055e565b91507fffffffffffffffffffffffffffffffffffffffffffffffffffffffffffffffff8203610bac57610bab610b43565b5b60018201905091905056fea2646970667358221220dd4e9ca5b5788b06ce991b50187bd9928208c120861e5fc3b8dcbebeab20df3c64736f6c634300081c0033",
  "immutableReferences": {},
  "source": "// SPDX-License-Identifier: MIT\r\npragma solidity ^0.8.0;\r\n\r\ncontract Voting {\r\n    mapping(string => uint256) public votes;\r\n    string[] public candidates;\r\n\r\n    function addCandidate(string memory name) public {\r\n        candidates.push(name);\r\n        votes[name] = 0;\r\n    }\r\n\r\n    function vote(string memory name) public {\r\n        require(votes[name] >= 0, \"Candidate does not exist\");\r\n        votes[name]++;\r\n    }\r\n\r\n    function getVotes(string memory name) public view returns (uint256) {\r\n        return votes[name];\r\n    }\r\n\r\n    function getCandidates() public view returns (string[] memory) {\r\n        return candidates;\r\n    }\r\n}\r\n",
  "sourcePath": "C:\\voting-dapp\\contracts\\Voting.sol",
  "compiler": {
    "name": "solc",
    "version": "0.8.28+commit.7893614a.Emscripten.clang"
  },
  "schemaVersion": "3.4.16",
  "updatedAt": "2025-03-22T14:43:10.699Z",
  "devdoc": {
    "kind": "dev",
    "methods": {},
    "version": 1
  },
  "userdoc": {
    "kind": "user",
    "methods": {},
    "version": 1
  }
}